S01700004763634170706C69636174696F6E312E737265635B
S11300000C943A000C9457000C9457000C9457002D
S11300100C9457000C9457000C9457000C94570000
S11300200C9457000C9457000C9457000C945700F0
S11300300C9457000C9457000C9457000C945700E0
S11300400C9457000C9457000C9428030C945700FC
S11300500C9457000C9457000C9457000C945700C0
S11300600C9457000C9457006364696E6F70737539
S113007078585B0011241FBECFEFD8E0DEBFCDBFA0
S113008012E0A0E0B1E0E6EFF2E102C005900D92CB
S1130090A839B107D9F723E0A8E9B2E001C01D925D
S11300A0AB32B207E1F70E9499010C9479090C94E0
S11300B000001092B90088E98093B80084E080932E
S11300C0BC00089584EA8093BC008091BC0088231E
S11300D0E4F708958093BB0084E88093BC0080918A
S11300E0BC008823E4F70895811104C084EC809354
S11300F0BC0003C084E88093BC008091BC008823CA
S1130100E4F78091BB00089584E98093BC000895CE
S1130110982F92959F70990F292F220F220F920FDB
S11301208F70890F08959DEC899F912D11249695C8
S113013096959695392F330F232F220F220F230FD5
S1130140821B20E1929F800D112408950E94590082
S11301500895CF93DF93EC010E94620080ED0E942A
S11301606A0080E00E946A0088818F770E946A009A
S113017089818F770E946A008A818F730E946A0046
S11301800E948400DF91CF910895CF93DF93EC0117
S11301900E94620080ED0E946A0084E00E946A006E
S11301A088818F730E946A0089818F710E946A001E
S11301B08A810E946A000E948400DF91CF91089591
S11301C0CF93DF93EC010E94620080ED0E946A00ED
S11301D080E00E946A000E94620081ED0E946A0031
S11301E080E00E9474008F77888380E00E9474000E
S11301F08F77898381E00E9474008F738A830E94C1
S11302008400DF91CF910895CF93DF93EC010E9496
S1130210620080ED0E946A0084E00E946A000E94ED
S1130220620081ED0E946A0080E00E9474008F7376
S1130230888380E00E9474008F71898381E00E942A
S113024074008A830E948400DF91CF910895CF9334
S1130250DF93EC010E94E000CE0103960E940401AA
S1130260DF91CF910895CF93DF93EC010E94A90011
S1130270CE0103960E94C500DF91CF91089510929C
S1130280C10096E09093C2001092C5008093C40010
S11302900895E1ECF0E08081886080830895E1ECCA
S11302A0F0E08081806180830895E1ECF0E080815A
S11302B08068808308958091C00085FFFCCF0895F5
S11302C08093C6000895EF92FF920F931F93CF93EC
S11302D07C01C0E007C00E945B01F80180810E949C
S11302E06001CF5F87010C0F111DF801808181111E
S11302F0F2CFCF911F910F91FF90EF900895FC01E1
S11303003281FB01228132130EC0FC013181FB01D9
S1130310218132130AC0FC019081FB01808198176E
S113032031F080E0089580E0089580E0089581E050
S11303300895CF93DF9300D000D000D0CDB7DEB7BF
S113034087E60E943F010E9449010E944F010E94DA
S11303505501789480E091E00E9463010E94A60018
S11303608FE39CE90197F1F700C0000083E191E07D
S11303700E9463018AE291E00E94630185E293E0B6
S11303800E94270180919A02882391F0809199021A
S113039081110EC062E273E085E293E00E947F0166
S11303A0882331F081E08093990285E0809398025C
S11303B080919B028823F1F105E213E0F801828128
S11303C00E948800D82EF80181810E948800C82EDE
S11303D0F80180810E948800B82EF80183810E9470
S11303E08800F82EF80184810E948800E82EF80124
S11303F085810E9488001F92BF921F92CF921F9204
S1130400DF921F928F931F92EF921F92FF928FE5BC
S113041091E09F938F938EE992E09F938F930E9434
S11304205B038EE992E00E9463010FB6F894DEBF8D
S11304300FBECDBF80919902882369F08091980204
S1130440882349F08BE891E00E946301809198022F
S113045081508093980280919C02882309F4EEC015
S113046010929C02E0919D02F0E0EE5FFC4F10823E
S113047064E971E082E093E00E945203892B41F425
S113048081E080939B0287E991E00E946301D4C0DC
S11304906BEA71E082E093E00E945203892B39F405
S11304A010929B028FEA91E00E946301C5C06FEB3A
S11304B071E082E093E00E945203892B09F064C04A
S11304C010929B0288EC91E00E94630110929D02BD
S11304D080919C028823E1F310929C02E0919D029A
S11304E0F0E082E093E0EE5FFC4F10829E012F5F0C
S11304F03F4F3F932F932F5F3F4F3F932F932F5F98
S11305003F4F3F932F932F5F3F4F3F932F932F5F87
S11305103F4F3F932F932F5F3F4F3F932F932BEFEB
S113052031E03F932F939F938F930E947D038E819D
S11305300E94930005E213E0F80182838D810E94FA
S11305409300F80181838C810E949300F8018083D9
S11305508B810E949300F80183838A810E94930017
S1130560F801848389810E949300F8018583C8017E
S11305700E94330189E192E00E9463010FB6F8946E
S1130580DEBF0FBECDBF58C069E272E082E093E0E7
S11305900E945203892B09F04BC083E392E00E942E
S11305A0630110929D0280919C028823E1F31092D2
S11305B09C02E0919D02F0E082E093E0EE5FFC4F4C
S11305C010829E012F5F3F4F3F932F932F5F3F4F2A
S11305D03F932F932F5F3F4F3F932F932FE532E0AD
S11305E03F932F939F938F930E947D038B810E944F
S11305F0930002E213E0F80182838A810E9493004F
S1130600F801818389810E949300F801808381E04D
S113061080939A0210929902109298028EE692E0C8
S11306200E9463010FB6F894DEBF0FBECDBF04C0B5
S113063080E892E00E94630110929D029FEFE3ED37
S1130640F0E39150E040F040E1F700C0000096CEA6
S11306501F920F920FB60F9211248F939F93EF93D3
S1130660FF938091C6008A3011F08D3021F481E02F
S113067080939C020EC090919D029F3150F4E091B2
S11306809D0291E09E0F90939D02F0E0EE5FFC4F7F
S11306908083FF91EF919F918F910F900FBE0F90E8
S11306A01F901895FB01DC018D91019080190110B8
S11306B0D9F3990B0895AEE0B0E0E1E6F3E00C94D1
S11306C050090D891E8986E08C831A8309838FEF74
S11306D09FE79E838D83AE01475E5F4F6F89788D60
S11306E0CE0101960E949603EF81F885E00FF11F79
S11306F010822E96E4E00C946C09AEE0B0E0E3E8DE
S1130700F3E00C94520985E08C838B899C899A834D
S11307108983AE01495E5F4F6D897E89CE01019662
S11307200E9413072E96E2E00C946E09ABE0B0E051
S1130730ECE9F3E00C9442096C017B018A01FC01B1
S113074017821682838181FFCCC1CE0101963C01C0
S1130750F6019381F70193FD859193FF81917F01C8
S1130760882309F4BAC1853239F493FD859193FF46
S113077081917F01853229F4B60190E00E948C08B2
S1130780E7CF912C212C312CFFE1F315D8F08B32DB
S113079079F038F4803279F08332A1F4232D20618A
S11307A01DC08D3261F0803369F4232D216016C0A1
S11307B0832D8260382EE32DE4603E2E2AC0F32D73
S11307C0F8601DC037FC2DC020ED280F2A3040F002
S11307D08E32B9F436FC81C1232D2064322E19C027
S11307E036FE06C08AE0989E200D1124922E11C078
S11307F0EAE02E9E200D1124222EF32DF0623F2ECE
S113080008C08C3621F4832D8068382E02C08836C7
S113081041F4F70193FD859193FF81917F0181114B
S1130820B3CF982F9F7D9554933028F40C5F1F4FBE
S11308309FE399830DC0833631F0833771F083359C
S113084009F059C021C0F801808189830E5F1F4FD0
S113085088248394912C530113C02801F2E04F0E95
S1130860511CF801A080B18036FE03C0692D70E0F0
S113087002C06FEF7FEFC5010E9443084C01820163
S1130880F32DFF773F2E16C0280122E0420E511CA3
S1130890F801A080B18036FE03C0692D70E002C06B
S11308A06FEF7FEFC5010E9438084C01F32DF0680B
S11308B03F2E820133FC1BC0822D90E088169906DE
S11308C0B0F4B60180E290E00E948C082A94F4CF40
S11308D0F50137FC859137FE81915F01B60190E007
S11308E00E948C0821102A9421E0821A9108811414
S11308F0910471F7E8C0843611F0893641F5F801A6
S113090037FE07C060817181828193810C5F1F4F24
S113091008C060817181072E000C880B990B0E5F53
S11309201F4FF32DFF763F2E97FF09C090958095BA
S1130930709561957F4F8F4F9F4FF0683F2E2AE04F
S113094030E0A3010E94E108882E861845C085374F
S113095031F4232D2F7EB22E2AE030E025C0932DD2
S1130960997FB92E8F36C1F018F4883579F0B5C067
S1130970803719F0883721F0B0C0E92FE061BE2E2E
S1130980B4FE0DC0FB2DF460BF2E09C034FE0AC0B6
S1130990292F2660B22E06C028E030E005C020E1F1
S11309A030E002C020E132E0F801B7FE07C0608108
S11309B07181828193810C5F1F4F06C060817181B8
S11309C080E090E00E5F1F4FA3010E94E108882E93
S11309D08618FB2DFF773F2E36FE0DC0232D2E7F6C
S11309E0A22E891458F434FE0BC032FC09C0832DA6
S11309F08E7EA82E05C0B82CA32C03C0B82C01C031
S1130A00B92CA4FE0FC0FE01E80DF11D80818033D6
S1130A1021F49A2D997EA92E09C0A2FE06C0B39492
S1130A20B39404C08A2D867809F0B394A3FC11C052
S1130A30A0FE06C0B21488F4280C922C9B180EC099
S1130A40B21460F4B60180E290E00E948C08B39482
S1130A50F7CFB21418F42B1802C0982C212CA4FE42
S1130A6010C0B60180E390E00E948C08A2FE17C07B
S1130A70A1FC03C088E790E002C088E590E0B601DD
S1130A800CC08A2D867859F0A1FE02C08BE201C009
S1130A9080E2A7FC8DE2B60190E00E948C088914E4
S1130AA038F4B60180E390E00E948C089A94F7CF62
S1130AB08A94F301E80DF11D8081B60190E00E9453
S1130AC08C088110F5CF222009F442CEB60180E2D1
S1130AD090E00E948C082A94F6CFF60186819781D3
S1130AE002C08FEF9FEF2B96E2E10C945E0920FD8C
S1130AF009C0FC0123FD05C022FF02C07383628389
S1130B0051834083089544FD17C046FD17C0AB01CF
S1130B10BC01DA01FB01AA0FBB1FEE1FFF1F1094DB
S1130B20D1F74A0F5B1F6E1F7F1FCB01BA01660FFF
S1130B30771F881F991F09C033E001C034E0660F96
S1130B40771F881F991F3150D1F7620F711D811DC6
S1130B50911D08950F931F93CF93DF938C01C801C8
S1130B600E944E08EC0197FD08C00E942408892BBE
S1130B70B1F7B801CE010E94C808CE01DF91CF9130
S1130B801F910F9108958F929F92AF92BF92EF920F
S1130B90FF920F931F93CF93DF938C01D62F7A018B
S1130BA0B22E0E944E089C0133272B32310531F0BE
S1130BB02D32310561F48B2D8068B82ED15011F49B
S1130BC080E068C0C8010E944E0897FDF9CFCB2D84
S1130BD0CD7F2B2D207309F58033F9F4AA24AA9430
S1130BE0AD0E09F443C0C8010E944E0897FD3EC0F3
S1130BF09C012F7D33272835310549F4C264D25036
S1130C00A9F1C8010E944E0897FF07C02FC0B6FE85
S1130C1002C0C26001C0C261DA2D812C912C540142
S1130C2020ED280F283080F0C4FF04C0B8010E94D2
S1130C30C80819C02A3040F0C6FFF8CF2F7D3FEE18
S1130C40320F363098F727504C2FC501B4010E945B
S1130C5083054B015C01C260D15059F0C8010E9468
S1130C604E0897FFDDCFC1FD04C0AACF812C912C83
S1130C705401C7FF08C0B094A09490948094811C40
S1130C80911CA11CB11C2C2FB501A401C7010E9409
S1130C90770581E0DF91CF911F910F91FF90EF9045
S1130CA0BF90AF909F908F900895A0E2B0E0EBE5E5
S1130CB0F6E00C9445095C01962E7A01F9018E0147
S1130CC00F5F1F4F680180E2D8011D928A95E9F7F2
S1130CD0D50113968C9080E090E0612C712C30E06B
S1130CE061E070E083FC259183FE21918F01522EF7
S1130CF0211103C080E090E092C02E3511F40097DA
S1130D0051F1432F50E0481759073CF42D3559F160
S1130D102D3219F4772009F103C0772009F46AC051
S1130D20452D469546954695D601A40FB11D452DF2
S1130D3047708B0102C0000F111F4A95E2F7A8010A
S1130D405C91452B4C93651459F0561410F453944C
S1130D50E7CF5A94E5CF31E004C07724739401C0FF
S1130D60712C0196BFCF772019F08E8180628E831B
S1130D70311103C08824839417C0F6019E012F5DAE
S1130D803F4F8081809581932E173F07D1F7F2CF93
S1130D90E114F10429F0D7018C93F70131967F0116
S1130DA09A94812C9920F9F0C5010E944E0897FD70
S1130DB018C0FC01FF2723E0F595E7952A95E1F794
S1130DC0EC0DFD1D208130E0AC014770552702C0B9
S1130DD0359527954A95E2F720FDDACFB5010E94B3
S1130DE0C808811087CFE114F10411F0D7011C92D7
S1130DF0C80115C0422F469546954695D601A40FC5
S1130E00B11D422F47708B0102C0000F111F4A957C
S1130E10E2F7A8015C91452B4C93622EA2CFA096D9
S1130E20EFE00C946109A0E0B0E0E9E1F7E00C9494
S1130E3045096C01EB015A01FC0117821682512C01
S1130E40F601E380FE01E3FC8591E3FE8191182F16
S1130E50EF01882309F4EEC090E00E942408892B56
S1130E6021F0C6010E94AA05EBCF153241F4FE0120
S1130E70E3FC1591E3FE1191EF01153281F4C601F3
S1130E800E944E0897FDD4C0412F50E09C013327A7
S1130E9024173507A9F2B6010E94C808CBC01A323C
S1130EA039F4E3FC1591E3FE1191EF0101E001C077
S1130EB000E0F12C20ED210F2A3080F402606F2D28
S1130EC070E080E090E040E20E948305F62EFE018F
S1130ED0E3FC1591E3FE1191EF01ECCF01FF03C098
S1130EE0F11003C0A7C0FF24FA94183619F01C3679
S1130EF051F010C0FE01E3FC1591E3FE1191EF01E6
S1130F00183641F408600460FE01E3FC1591E3FE29
S1130F101191EF01112309F48DC0612F70E088E66F
S1130F2090E00E942D08892B09F484C000FD07C0BD
S1130F30F50180809180C50102965C0102C0812C7C
S1130F40912C1E3651F4F6014681578160E070E021
S1130F50202FC4010E94770573CF1336A9F401FD35
S1130F6002C0FF24F394C6010E944E0897FD60C09E
S1130F708114910429F0F4018083C40101964C0189
S1130F80FA94F110F0CF50C01B3559F49E01A4011E
S1130F906F2DC6010E945506EC01892B09F044C04F
S1130FA03EC0C6010E94AA0597FD42C01F3661F1EA
S1130FB028F4143639F1193651F128C0133771F079
S1130FC0153701F123C08114910429F0F4016082E2
S1130FD0C40101964C01FA94FF2071F0C6010E94ED
S1130FE04E083C0197FD08C00E942408892B59F340
S1130FF0B601C3010E94C80881149104A9F0F40148
S1131000108212C0006203C0006101C00064202F7E
S1131010A4016F2DC6010E94C305811105C0F6010C
S11310208381807329F406C000FD0ACF539408CF4E
S1131030552019F0852D90E002C08FEF9FEFCDB7BA
S1131040DEB7EFE00C94610991110C943F098032F2
S113105019F089508550C8F70895FC0105900616CB
S113106021F00020D9F7C00108953197CF010895E8
S1131070FC010590615070400110D8F7809590955F
S11310808E0F9F1F0895FC01615070400190011064
S1131090D8F7809590958E0F9F1F0895CF93DF9377
S11310A0EC012B8120FF33C026FF0AC02F7B2B834A
S11310B08E819F8101969F838E838A8190E029C0CF
S11310C022FF0FC0E881F9818081082E000C990B62
S11310D0009719F420622B831AC03196F983E883B0
S11310E00EC0EA85FB85099597FF09C02B810196FF
S11310F011F080E201C080E1822B8B8308C02E8135
S11311003F812F5F3F4F3F832E83992702C08FEF8C
S11311109FEFDF91CF9108950F931F93CF93DF93A8
S1131120FB01238121FD03C08FEF9FEF2CC022FF21
S113113016C046815781248135814217530744F4F0
S1131140A081B1819D012F5F3F4F318320838C9318
S1131150268137812F5F3F4F3783268314C08B014D
S1131160EC01FB010084F185E02D0995892BE1F662
S1131170D80116968D919C911797019617969C937A
S11311808E931697CE01DF91CF911F910F91089501
S1131190FB01238120FF12C026FD10C08F3F3FEFCB
S11311A0930761F082832F7D206423832681378116
S11311B02150310937832683992708958FEF9FEFB4
S11311C00895FA01AA27283051F1203181F1E894D9
S11311D06F936E7F6E5F7F4F8F4F9F4FAF4FB1E026
S11311E03ED0B4E03CD0670F781F891F9A1FA11D21
S11311F0680F791F8A1F911DA11D6A0F711D811D22
S1131200911DA11D20D009F468943F912AE0269FE6
S113121011243019305D3193DEF6CF010895462F45
S11312204770405D4193B3E00FD0C9F7F6CF462F26
S11312304F70405D4A3318F0495D31FD405241938F
S113124002D0A9F7EACFB4E0A6959795879577954C
S11312506795BA95C9F700976105710508959B01D3
S1131260AC010A2E06945795479537952795BA955C
S1131270C9F7620F731F841F951FA01D0895992736
S1131280882708952F923F924F925F926F927F9298
S11312908F929F92AF92BF92CF92DF92EF92FF9282
S11312A00F931F93CF93DF93CDB7DEB7CA1BDB0B2E
S11312B00FB6F894DEBF0FBECDBF09942A883988D3
S11312C048885F846E847D848C849B84AA84B984DA
S11312D0C884DF80EE80FD800C811B81AA81B981E6
S11312E0CE0FD11D0FB6F894DEBF0FBECDBFED01FA
S10912F00895F894FFCFFD
S11312F6554152542046554E43494F4E414E444F54
S11313060A0D004269656E76656E69646F20616CCC
S11313162072656C6F6A210A0D00436F6D616E64FD
S11313266F7320646973706F6E69626C65733A20BB
S11313364F4E2C204F46462C205345542054494D9D
S1131346452C2053455420414C41524D0A0D00462C
S1131356454348413A20253032642F253032642FE4
S11313662530326420484F52413A253032643A25BA
S11313763032643A253032640A0D00414C41524DF4
S1131386410A0D004F4E004D6F737472616E646FA7
S113139620686F72612E2E2E0A0D004F46460048B5
S11313A66F726120706175736164612E0A0D00535A
S11313B645542054494D4500496E6772657365204E
S11313C66C6120686F726120636F6E20656C2066A5
S11313D66F726D61746F2068683A6D6D3A7373202D
S11313E664642F6D6D2F61610A0D00256868753A76
S11313F6256868753A2568687520256868752F25F7
S11314066868752F2568687500486F726120736572
S113141674656164612E0A0D0053455420414C41A4
S1131426524D00496E6772657365206C6120616C6C
S113143661726D6120636F6E20656C20666F726DDC
S113144661746F2068683A6D6D3A73730A0D0025EE
S11314566868753A256868753A2568687500416C48
S113146661726D6120736574656164612E0A0D0095
S1131476436F6D616E646F20646573636F6E6F6333
S10B148669646F2E0A0D0000D9
S9030000FC
