S00C000074705F322E73726563A3
S11300000C9454000C9471000C9471000C947100C5
S11300100C9471000C9471000C9471000C94710098
S11300200C9471000C9471000C9471000C94710088
S11300300C9471000C9471000C945E040C94710087
S11300400C9471000C9471000C9471000C94710068
S11300500C9471000C9471000C9471000C94710058
S11300600C9471000C947100001F000000001F002C
S1130070001F101010101F00001F181818181F0060
S1130080001F1C1C1C1C1F00001F1E1E1E1E1F0008
S1130090001F1F1F1F1F1F0003070F1F0F07030051
S11300A0181C1E1F1E1C180011241FBECFEFD8E001
S11300B0DEBFCDBF12E0A0E0B1E0E2E7FBE002C0AA
S11300C005900D92A837B107D9F722E0A8E7B2E06E
S11300D001C01D92AC39B207E1F70E9497020C945B
S11300E0B7050C94000065B1982F9074492F50E027
S11300F055954795559547955595479555954795E4
S1130100982F9078292F30E0022E232F000C221FE5
S1130110330B000C221F331F962F997F492B242B5E
S113012025B968B1982F9071492F50E0559547959E
S11301305595479555954795982F9072292F30E0FE
S1130140359527953595279535952795962F997F3C
S1130150492B242B28B99BB192609BB99BB1916028
S11301609BB925ED2A95F1F700009BB19E7F9BB9C1
S11301709BB19D7F9BB995ED9A95F1F7000065B110
S113018020E1829FC0011124AC014074552755958C
S113019047955595479555954795559547959C0190
S11301A020783327022E232F000C221F330B000C40
S11301B0221F331F362F397F432B242B25B948B1F7
S11301C09C012071332735952795359527953595CD
S11301D027958072992795958795959587959595F7
S11301E08795942F997F292B822B88B98BB18260B4
S11301F08BB98BB181608BB985ED8A95F1F70000DD
S11302008BB18E7F8BB98BB18D7F8BB995ED9A9520
S1130210F1F70000089565B1982F9074492F50E0CC
S113022055954795559547955595479555954795B2
S1130230982F9078292F30E0022E232F000C221FB4
S1130240330B000C221F331F962F997F492B242B2D
S113025025B968B1982F9071492F50E0559547956D
S11302605595479555954795982F9072292F30E0CD
S1130270359527953595279535952795962F997F0B
S1130280492B242B28B99BB191609BB9EFE9FFE07E
S11302903197F1F700C000009BB19E7F9BB9EFE955
S11302A0FFE03197F1F700C0000065B1F0E18F9FE6
S11302B0C0011124AC0140745527559547955595B7
S11302C0479555954795559547959C012078332733
S11302D0022E232F000C221F330B000C221F331F6E
S11302E0362F397F432B242B25B948B19C0120712B
S11302F0332735952795359527953595279580721C
S11303009927959587959595879595958795942F94
S1130310997F292B822B88B98BB181608BB98FE9A6
S11303209FE00197F1F700C000008BB18E7F8BB97D
S1130330EFE9FFE03197F1F700C00000089581E094
S11303400E940B0108950F931F93CF93DF9300979F
S113035069F0D62F8C01C0E007C0F801EC0FF11D45
S113036080810E947300CF5FCD17B8F3DF91CF91E6
S11303701F910F910895623031F0633031F0613094
S113038029F4805C03C08C5E01C08C5A80680E9492
S11303900B010895EF92FF920F931F93CF93DF9376
S11303A07C01862F90E0880F991F880F991F880F72
S11303B0991F8064C0E0D0E00DC0F701EC0FFD1F71
S11303C0149101E0080F0E940B01812F0E94730019
S11303D02196802FC830D10580F3DF91CF911F91F2
S11303E00F91FF90EF900895CF93DF938FE59AEEEE
S11303F00197F1F700C0000085B1897F85B988B104
S1130400897F88B91BB887B1866087B984B1866053
S113041084B984B1866084B987B1866087B98AB1AA
S113042083608AB985B1897F85B988B1866088B9C6
S11304308BB181608BB98FE99FE00197F1F700C020
S113044000008BB18E7F8BB98FE99FE00197F1F7A4
S113045000C0000085B1897F85B988B1866088B9FC
S11304608BB181608BB98FE99FE00197F1F700C0F0
S113047000008BB18E7F8BB98FE99FE00197F1F774
S113048000C0000085B1897F85B988B1897F846007
S113049088B98BB181608BB98FE99FE00197F1F73F
S11304A000C000008BB18E7F8BB98FE99FE001976C
S11304B0F1F700C0000088E20E940B018CE00E946A
S11304C00B0160E0C0E00AC0D1E0D60F8C2F90E0B1
S11304D088599F4F0E94CA01C85F6D2FC034A0F392
S11304E0DF91CF9108952FEF80E792E02150804073
S11304F09040E1F700C000000E94F4012FEF80E774
S113050092E0215080409040E1F700C000000E943A
S11305109F0160E082E00E94BB012FEF80E792E040
S1130520215080409040E1F700C000000895CF932F
S1130530DF931F92CDB7DEB70E9473028AE00E9458
S1130540B3040E94BB0282ED94E00E9451050E9414
S1130550EE048823E1F3CE0101960E943104811157
S113056002C08FEF89838C2F8F5F0E94CF0280E0BF
S11305700E94EB04ECCF81E080939A0210929B02DC
S113058083E0E8E8F2E0DF011D928A95E9F786E06E
S1130590ECE7F2E0DF011D928A95E9F708950F93E5
S11305A01F93CF93DF93EC0180919A02813021F065
S11305B0823009F447C06BC080919B02813029F0DE
S11305C081E080939B020E944C0388818A3209F067
S11305D05EC082E080939A020E94DF040E944C0570
S11305E0AC019C01AFEAB7E40E94F104281B390B6B
S11305F036952795820F931F929582958F70892740
S11306009F70892769E1689F9001699F300D1124CB
S1130610CA01821B930BFC01FF27EE0FFF1FEC5F47
S1130620FE4F6081718182E892E00E945C050E9425
S1130630D604609378027093790280937A0290933F
S11306407B0225C080919B02823039F082E0809346
S11306509B0282E892E00E9461030E94D60400910A
S113066078021091790220917A0230917B02DC01A8
S1130670CB01801B910BA20BB30B883C9105A10508
S1130680B10528F083E080939A020E948103DF91F0
S1130690CF911F910F9108950E949F0160E080E027
S11306A00E94BB016BE08BEE91E00E94A30161E02C
S11306B080E00E94BB016EE087EF91E00E94A301FD
S11306C00895CF93DF93EC010E949F0160E080E0E6
S11306D00E94BB0169E08BE192E00E94A30161E00A
S11306E080E00E94BB01FE0101900020E9F73197F0
S11306F0BF016C1B7D0BCE010E94A301DF91CF9142
S113070008950E949F0160E080E00E94BB0168E0C0
S113071085E292E00E94A30161E080E00E94BB01B7
S11307206DE08EE292E00E94A3010895CF93DF93DF
S1130730CDB7DEB760970FB6F894DEBF0FBECDBF5E
S11307402AB123742AB924B1267E24B92BB12C638F
S11307502BB925B1267E25B92BB12F772BB920E1F2
S1130760E7E3F1E0DE01119601900D922A95E1F79D
S1130770E0E067C02AB123742AB924B1267E24B9E3
S1130780E11104C024B1206124B90FC0E13021F487
S113079024B1286024B909C0E23021F424B12160D5
S11307A024B903C02AB120682AB94B9910C0F0E0DB
S11307B0EE0FFF1FEE0FFF1F21E030E02C0F3D1F57
S11307C0E20FF31F2081FC01208381E041C04D9999
S11307D011C0F0E0EE0FFF1FEE0FFF1F319621E076
S11307E030E02C0F3D1FE20FF31F2081FC0120831A
S11307F081E02EC04C9911C0F0E0EE0FFF1FEE0F08
S1130800FF1F329621E030E02C0F3D1FE20FF31F53
S11308102081FC01208381E01BC04A9911C0F0E0D3
S1130820EE0FFF1FEE0FFF1F339621E030E02C0F79
S11308303D1FE20FF31F2081FC01208381E008C0EB
S1130840EF5FE43008F496CF2FEFFC01208380E0C3
S113085060960FB6F894DEBF0FBECDBFDF91CF9187
S113086008950F931F93CF93DF931F92CDB7DEB7F5
S11308708C01CE0101960E94960389818F3F31F449
S113088080938B028093360180E012C090918B029A
S113089089130BC090913601891739F0F8018083D0
S11308A089818093360181E003C080938B0280E0CC
S11308B00F90DF91CF911F910F9108951F920F9286
S11308C00FB60F9211248F939F93AF93BF93809190
S11308D08C0290918D02A0918E02B0918F020196AC
S11308E0A11DB11D80938C0290938D02A0938E0262
S11308F0B0938F02809197028F5F809397029091BB
S11309009602891305C081E08093990210929702A0
S113091080919802882399F080919002909191029D
S1130920A0919202B09193020196A11DB11D8093F2
S1130930900290939102A0939202B09393028091BB
S1130940940290919502009729F001979093950253
S113095080939402BF91AF919F918F910F900FBE9E
S11309600F901F901895F89410928C0210928D029B
S113097010928E0210928F028093960284B5826048
S113098084BD84B58E7F84BD85B5877F85BD85B5DF
S1130990836085BD85B58B7F85BD8AEF87BDEEE617
S11309A0F0E08081826080837894089560918C0265
S11309B070918D0280918E0290918F020895109211
S11309C0900210929102109292021092930281E08E
S11309D080939802089580939902089580919902D2
S11309E00895A29FB001B39FC001A39F700D811D04
S11309F01124911DB29F700D811D1124911D089524
S1130A008F929F92AF92BF92CF92DF92EF92FF921A
S1130A10CF93DF93EC01688179818A819B81611591
S1130A2071058105910521F464E279ED8BE597E088
S1130A302DE133EF41E050E00E94630549015A0182
S1130A409B01AC01A7EAB1E40E9482056B017C0121
S1130A50ACEEB4EFA50194010E949005DC01CB013A
S1130A608C0D9D1DAE1DBF1DB7FF03C00197A109CD
S1130A70B04888839983AA83BB839F77DF91CF9102
S1130A80FF90EF90DF90CF90BF90AF909F908F90AA
S1130A9008950E940005089580E091E00E940005F9
S1130AA00895A0E0B0E08093000190930101A09329
S1130AB00201B09303010895FB01DC0101900D9242
S1130AC00020E1F70895052E97FB1EF400940E9480
S1130AD07A0557FD07D00E94950507FC03D04EF414
S1130AE00C947A0550954095309521953F4F4F4F82
S1130AF05F4F089590958095709561957F4F8F4FC6
S1130B009F4F08950E94F104A59F900DB49F900DEE
S1130B10A49F800D911D11240895B7FF0C948205A4
S1130B200E948205821B930B0895A1E21A2EAA1B30
S1130B30BB1BFD010DC0AA1FBB1FEE1FFF1FA21789
S1130B40B307E407F50720F0A21BB30BE40BF50B86
S1130B50661F771F881F991F1A9469F7609570950F
S1130B60809590959B01AC01BD01CF010895F89447
S1050B70FFCFB1
S1130B720100000047014D01530159015F01650164
S1130B826B01710177017D01830189018F01950157
S1130B929B01A101A701AD01B301B901BF01C501C7
S1130BA2CB01D101D701FF313233413435364237DB
S1130BB23839432A3023444172626F6C00426F74A5
S1130BC26F6E004344794D4300436C6176450046A1
S1130BD26163696C00476166617300486F6A61739F
S1130BE2004C6942726F004C616E7A61004E696515
S1130BF2766500506552726F00506563455300502C
S1130C0269416E6F005072594B65005255454461FB
S1130C120053455249450053616C55640053616C5D
S1130C2275640053696C6C61005465636C610056B1
S1130C32616C6F7200566572646500596E48527A2F
S1130C420068415264440073696C6C610047414E10
S1130C5241444F520054494D453A005245434F5284
S1130C62444152204C4100434F4E54524153454E4D
S1130C724120282A29004A5547414E444F00494EF3
S1130C824752455345204E554D3A004D656D6F729E
S1130C92697A613A0050616C616272613A00436F31
S1130CA26469676F2041534349493A004572726F40
S1130CB2722000206465203300564943544F524940
S1130CC24121005469656D706F3A00444552524F98
S1130CD254412100496E74656E74616C6F206465C1
S10B0CE2206E7565766F0000B9
S9030000FC
