:100000000C9434000C9449000C9449000C94490061
:100010000C9449000C9449000C9449000C9449003C
:100020000C9449000C9449000C9449000C9449002C
:100030000C9449000C9449000C9449000C9449001C
:100040000C9449000C9449000C9449000C9449000C
:100050000C9449000C9449000C9449000C944900FC
:100060000C9449000C94490011241FBECFEFD8E036
:10007000DEBFCDBF11E0A0E0B1E0E8EFF1E002C0EB
:1000800005900D92AA31B107D9F70E946C000C942B
:10009000FA000C940000FC012081213019F422E0C8
:1000A00020830895223021F423E0FC012083089569
:1000B00021E0FC0120830895813021F485B188601E
:1000C00085B90895823021F485B1806185B908959C
:1000D00085B1886185B90895CF93DF931F92CDB71D
:1000E000DEB781E089838FEF8AB984B1886184B9F2
:1000F00087B18C7F87B988B1836088B910E0309967
:100100000BC0CE0101960E944B008FE493EC019747
:10011000F1F700C0000010E0319904C089810E940D
:100120005C0003C085B1877E85B98981813091F4F7
:10013000812F90E0FC01E95EFE4F20812BB90196F2
:1001400081709078992324F401978E6F9F6F0196A8
:10015000182F21C0823091F4812F90E0FC01E15FE3
:10016000FE4F20812BB9019687709078992324F453
:100170000197886F9F6F0196182F0DC0812F90E017
:10018000FC01E050FF4F20812BB901966FE070E039
:100190000E94D200182F87EA91E60197F1F700C07C
:1001A0000000ADCF97FB072E16F4009407D077FD23
:1001B00009D00E94E60007FC05D03EF49095819599
:1001C0009F4F0895709561957F4F0895AA1BBB1BA3
:1001D00051E107C0AA1FBB1FA617B70710F0A61B47
:1001E000B70B881F991F5A95A9F780959095BC0168
:0801F000CD010895F894FFCF42
:1001F80080402010080402010204081020408001F9
:0A0208000204081020408055AA00EF
:00000001FF
