:100000000C9434000C9449000C9449000C94490061
:100010000C9449000C9449000C9449000C9449003C
:100020000C9449000C9449000C9449000C9449002C
:100030000C9449000C9449000C9449000C9449001C
:100040000C9449000C9449000C9449000C9449000C
:100050000C9449000C9449000C9449000C944900FC
:100060000C9449000C94490011241FBECFEFD8E036
:10007000DEBFCDBF11E0A0E0B1E0E2E1F2E002C0FE
:1000800005900D92AA31B107D9F70E94A6000C94F1
:1000900007010C940000FC012081213019F422E0BA
:1000A00020830895223021F423E0FC012083089569
:1000B00021E0FC0120830895813021F485B188601E
:1000C00085B90895823021F485B1806185B908959C
:1000D00085B1886185B90895FB01813099F4A081CB
:1000E000B0E0A95EBE4F8C918BB9808190E0019603
:1000F00081709078992324F401978E6F9F6F0196F9
:1001000080830895823099F4A081B0E0A15FBE4F52
:100110008C918BB9808190E00196877090789923BB
:1001200024F40197886F9F6F019680830895A081C2
:10013000B0E0A050BF4F8C918BB9808190E00196C8
:100140006FE070E00E94DF0080830895CF93DF931B
:1001500000D0CDB7DEB781E089831A828FEF8AB9EC
:1001600084B1886184B987B18C7F87B988B1836095
:1001700088B910E0309B11E0112341F0309B06C09C
:10018000CE0101960E944B001A8210E0319904C002
:1001900089810E945C0003C085B1877E85B9BE015C
:1001A0006E5F7F4F89810E946C002FEF81EE94E09B
:1001B000215080409040E1F700C00000DBCF97FB6A
:1001C000072E16F4009407D077FD09D00E94F300A3
:1001D00007FC05D03EF4909581959F4F089570954A
:1001E00061957F4F0895AA1BBB1B51E107C0AA1F51
:1001F000BB1FA617B70710F0A61BB70B881F991FC8
:100200005A95A9F780959095BC01CD010895F89471
:02021000FFCF1E
:1002120080402010080402010204081020408001DE
:0A0222000204081020408055AA00D5
:00000001FF
